:020000040800F2
:10000000F80700209901000871300008272D00082A
:100010006D30000881070008B536000800000000B8
:10002000000000000000000000000000A1300008F7
:10003000850700080000000075300008A3300008A4
:10004000B3010008B3010008B3010008B3010008C0
:10005000B3010008B301000891070008A7070008D2
:10006000B3010008B1070008BB070008B30100088E
:10007000B3010008B3010008B3010008B301000890
:10008000B3010008B301000885060008B3010008A9
:10009000B3010008B3010008B3010008B301000870
:1000A000B3010008B3010008B3010008B301000860
:1000B0001D3100082D31000800000000B3010008C8
:1000C000B30100080000000000000000B3010008B8
:1000D00000000000A5360008B30100080000000081
:1000E0009B070008B3010008B301000800F002F804
:1000F00000F042F80AA090E8000C82448344AAF180
:100100000107DA4501D100F037F8AFF2090EBAE87D
:100110000F0013F0010F18BFFB1A43F0010318473B
:10012000B8410000D8410000103A24BF78C878C117
:10013000FAD8520724BF30C830C144BF04680C60ED
:10014000704700000023002400250026103A28BF35
:1001500078C1FBD8520728BF30C148BF0B60704739
:10016000642900F09D80732900F04D8200207047C3
:100170001FB51FBD10B510BD00F049FA1146FFF7BD
:10018000F7FF03F0D5FC00F067FA03B4FFF7F2FFC6
:1001900003BC00F06FFA0000094880470948004797
:1001A000FEE7FEE7FEE7FEE7FEE7FEE7FEE7FEE727
:1001B000FEE7FEE704480549054A064B7047000084
:1001C00019310008ED000008F8010020F8070020B0
:1001D000F8030020F80300200FB41CB5074B06AA53
:1001E0007B4469460090059800F0E3F900206946D9
:1001F00000F0F2F91CBC5DF814FB0000F5030000F0
:1002000070B5044685690068C10601D5302600E056
:100210002026C00707D070BDD4E9012130469047A1
:10022000206A401C20626D1EF6D570BD70B5044674
:1002300085690078C00707D170BDD4E9012120206D
:100240009047206A401C20626D1EF6D570BD70B5C7
:100250000C460546012A05D02878800600D5EA69B3
:10026000002302E0012305E05B1C934202D2E05C24
:100270000028F9D1A869E618C01AA861286A1844AC
:1002800028622846FFF7BCFF04E0D5E9012114F8F5
:10029000010B9047B442F8D32846FFF7C7FF70BD63
:1002A0002DE9F0410646002410687529314616A54F
:1002B00010D0AFF30080002802DA404213A507E017
:1002C00031688A0701D512A502E0490704D511A5B6
:1002D000012401E0AFF3008000210A2206F1240787
:1002E00009E0B0FBF2FCB0FBF2F302FB1C00303083
:1002F00078541846491C0028F3D123462A46304634
:10030000BDE8F04100F0F6B8000000002D0000004C
:100310002B000000200000002DE9F05F8946044614
:100320004FF0000ADFF874B1FB44C0F820A020466B
:10033000E1688847002874D0252806D0D4E9012137
:100340009047206A401C2062F1E700265F46204665
:10035000E16888472028054607DB312D05D278194A
:1003600010F8200C08B10643F1E7B00701D526F0DC
:100370000406C4F81CA00027C4F818A02A2D09D030
:10038000284603F0B5F938B304EB8708303DC8F8C8
:10039000185019E059F8041B204604EB87029161BC
:1003A000E1688847012F054618D1E069002820DA66
:1003B00026F020061DE0D8F8180000EB800005EBC1
:1003C00040003038C8F818002046E16888470546E4
:1003D00003F08EF90028EED1012F0AD02E2D08D17E
:1003E0002046E16888477F1C0546022F46F020061C
:1003F000C4DBA069002803DA404246F00106A06190
:10040000F00701D026F010066C2D0BD0682D09D016
:100410004C2D39D06A2D35D0742D35D07A2D33D06E
:1004200016E038E0E1682F4620468847B842054686
:1004300009D16C2F26D04FF48060E1680643204636
:100440008847054604E06C2F1AD04FF480700643AD
:100450000DB3A5F14100192802D8203546F40066F5
:100460004A462946204626604E46FFF779FE80B16F
:1004700001280BD0F61D26F0070000F1080956E709
:100480004020E4E78020D8E70020D6E706F1040901
:100490004DE7284652E7206ABDE8F09F9A3F0000EA
:1004A0004FF0000200B5134694469646203922BF0D
:1004B000A0E80C50A0E80C50B1F12001BFF4F7AF58
:1004C000090728BFA0E80C5048BF0CC05DF804EB3A
:1004D000890028BF40F8042B08BF704748BF20F8A8
:1004E000022B11F0804F18BF00F8012B70477047A6
:1004F000704770472DE9F0470D46994692460446ED
:1005000000F124080168880604D5E06921F0100193
:10051000216000E00120A84201DD471B00E0002728
:10052000A1697A1902EB0900081AA0612078C006B7
:1005300002D42046FFF764FE002608E0D4E901213A
:100540001AF806009047206A401C761C20624E452F
:10055000F4DB2078C0060AD52046FFF751FE06E0FE
:10056000D4E9012130209047206A401C2062381EC7
:10057000A7F10107F4DC07E0D4E9012118F8050030
:100580009047206A401C2062281EA5F10105F3DC7B
:100590002046FFF74BFE2078000602D50220BDE87A
:1005A000F0870120FBE7000001694A1C026108781E
:1005B000704700B58FB0CDE90131002105910549A3
:1005C0007944CDE9031011466846FFF7A5FE0FB048
:1005D00000BD0000E5FFFFFF0A6802F8010B0A609A
:1005E000704710B5436913B1AFF3008001E0FFF726
:1005F0002EFE012010BD127800F124010A700022A5
:100600004A700122EDE711684FF0FF32E9E77546C5
:1006100000F02CF8AE4605006946534620F007006E
:10062000854618B020B5FFF7C5FDBDE820404FF066
:1006300000064FF000074FF000084FF0000B21F0CC
:100640000701AC46ACE8C009ACE8C009ACE8C00999
:10065000ACE8C0098D46704710B50446AFF3008082
:100660002046BDE81040FFF790BD000000487047ED
:100670009801002001491820ABBEFEE726000200C9
:100680007047000010B5024800F0E3F910BD00000B
:100690009400002070B5044600252068806800F0B2
:1006A000010018B32068806820F00100216888608C
:1006B00000F090FF054613E000F08CFF401B02287D
:1006C0000ED92068806800F0010048B1A06A40F0AF
:1006D0001000A062E06A40F00100E062012070BDFD
:1006E0002068806800F001000028E5D10020F6E7CE
:1006F00038B504460025002000902068806800F08E
:10070000010078BB2068806840F0010021688860A3
:10071000194800681949B0FBF1F0009002E0009818
:10072000401E009000980028F9D100F053FF0546C4
:1007300019E000F04FFF401B022814D920688068A0
:1007400000F0010078B9A06A40F01000A062E06AF1
:1007500040F00100E06200BF002084F8240000BFE8
:10076000012038BD05E02068806800F00100002805
:10077000DFD00020F5E700009000002040420F008D
:1007800000BFFEE7704700E0401E0028FCD1704724
:1007900010B5012000F07AFD10BD10B54FF40060D7
:1007A00000F074FD10BD10B5022000F06FFD10BD0B
:1007B00010B5082000F06AFD10BD10B5102000F043
:1007C00065FD10BD72B600BFFEE70000F8B5044637
:1007D00000260020009000BF94F82400012801D1D9
:1007E0000220F8BD012084F8240000BF2046FFF756
:1007F00051FF0646002E6CD1A06A20F4885040F0CC
:100800000200A062022000F0D7FF35490968B1FB61
:10081000F0F04000009002E00098401E0090009828
:100820000028F9D12046FFF763FF2068806840F078
:1008300008002168886000F0CDFE054616E000F053
:10084000C9FE401B0A2811D92068806800F0080002
:1008500060B1A06A20F0020040F01000A06200BF6A
:10086000002084F8240000BF0120BAE720688068D7
:1008700000F008000028E2D12068806840F0040001
:100880002168886000F0A6FE054616E000F0A2FE92
:10089000401B0A2811D92068806800F0040060B16C
:1008A000A06A20F0020040F01000A06200BF00200B
:1008B00084F8240000BF012093E72068806800F0DE
:1008C00004000028E2D1A06A20F0020040F00100FC
:1008D000A06200BF002084F8240000BF304680E7FB
:1008E000900000207047000038B502460023002029
:1008F000009000BF92F82400012801D1022038BDE9
:10090000012082F8240000BF4868072812D210682E
:10091000406B0C79641E04EB84051F24AC40A0439B
:100920000D796D1E05EB85050C68AC4020431468FD
:10093000606327E048680D2812D21068006B0C79BC
:10094000E41F04EB84051F24AC40A0430D79ED1F88
:1009500005EB85050C68AC4020431468206311E06A
:100960001068C06A0C790D3C04EB84051F24AC4070
:10097000A0430D790D3D05EB85050C68AC40204387
:100980001468E06208680A2812D31068C0680C78FE
:100990000A3C04EB44050724AC40A0430D780A3D13
:1009A00005EB45058C68AC4020431468E0600FE01F
:1009B000106800690C7804EB44050724AC40A043A0
:1009C0000D7805EB45058C68AC4020431468206128
:1009D0000868102802D00868112827D1174C106821
:1009E000A0421ED11068806800F40000F0B91068C1
:1009F000806840F400001468A0600868102815D1D1
:100A00000F4800680F4CB0FBF4F000EB8000400092
:100A1000009002E00098401E009000980028F9D154
:100A200004E0906A40F020009062012300BF0020A3
:100A300082F8240000BF184661E70000002401404E
:100A40009000002040420F00704701460868C06CCB
:100A5000704710B504462068406800F02000202848
:100A60002FD12068006800F00200022829D1A06A76
:100A700000F0100018B9A06A40F40070A06220686D
:100A8000806800F46020B0F5602F13D1207B88B916
:100A90002068406820F0200021684860A06A20F4A7
:100AA0008070A062A06A00F4805018B9A06A40F07B
:100AB0000100A0622046FFF7C7FF6FF01200216817
:100AC00008602068406800F0800080283BD12068E2
:100AD000006800F00400042835D1A06A00F010007E
:100AE00018B9A06A40F40050A0622068806800F441
:100AF000E040B0F5E04F0DD02068406800F4806021
:100B0000D0B92068806800F46020B0F5602F13D160
:100B1000207B88B92068406820F080002168486008
:100B2000A06A20F48050A062A06A00F4807018B916
:100B3000A06A40F00100A0622046FFF7D3FE6FF0EC
:100B40000C00216808602068406800F040004028E0
:100B50000FD12068006800F0010050B1A06A40F495
:100B60008030A062204600F0A7F86FF001002168F5
:100B7000086010BD2DE9F04104460027002500263D
:100B8000A84614B90120BDE8F081A06810B1207D0D
:100B900000B100BFA06A30B90020E06284F82400F0
:100BA000204600F08BF82046FFF774FD0746A06A48
:100BB00000F01000002873D1002F71D1A06A20F43A
:100BC000885040F00200A062E16960680843217B20
:100BD00040EA41000643A068B0F5807F02D0A068DB
:100BE000012802D14FF4807000E000200543207DF1
:100BF000012811D1207B38B9A069401E4FF4006153
:100C000041EA4030054307E0A06A40F02000A062BE
:100C1000E06A40F00100E0622068406820F469402A
:100C20002843216848602068806821490840304393
:100C300021688860A068B0F5807F02D0A068012894
:100C400002D14FF4807000E00020B0F5807F03D126
:100C5000208A401E4FEA00582068C06A20F47000C5
:100C600040EA08002168C86220688068114908408D
:100C7000B04208D10020E062A06A20F0020040F0FB
:100C80000100A06211E0A06A20F0020040F0100014
:100C9000A062E06A40F00100E062012705E0FFE7A2
:100CA000A06A40F01000A062012738466BE7000000
:100CB000FDF7E1FFFE0E1FFF7047000010B586B084
:100CC0000446002002900390049005901849206883
:100CD00088422AD100BF1748806940F40070154946
:100CE00088610846806900F40070019000BF00BF71
:100CF00000BF0846806940F00400886108468069AA
:100D000000F00400019000BF00BF0120029003200A
:100D1000039002A9084800F0C7FA002211461220E9
:100D200000F0DEFC122000F0CBFC06B010BD00008D
:100D3000002401400010024000080140F8B50446BC
:100D40000D46002600200090002700F043FC0646D8
:100D50002068806800F4807050B1A06A40F02000E4
:100D6000A06200BF002084F8240000BF0120F8BD6D
:100D70002068406800F4807020BB2068C06A00F4DE
:100D80007000F8B917E0681CA8B125B100F022FC8A
:100D9000801BA8420FD92068006800F0020050B9FB
:100DA000A06A40F00400A06200BF002084F8240084
:100DB00000BF0320DBE72068006800F00200002885
:100DC000E1D053E0022000F0F7FC38490968B1FB9C
:100DD000F0F021680969364A114091B92168C96863
:100DE0009211114069B921680969324A114031B93B
:100DF0002168C9689211114009B9142117E029210D
:100E000015E0216809692B4A114021B92168C96898
:100E10009211114041B121680969274A114029B94D
:100E20002168C968114009B9542100E0FC2100FB88
:100E300001F718E0681C98B125B100F0CBFB801BCE
:100E4000A8420DD90098B8420AD2A06A40F0040026
:100E5000A06200BF002084F8240000BF032086E7C2
:100E60000098401C00900098B842E3D36FF0120045
:100E700021680860A06A40F40070A0622068806861
:100E800000F46020B0F5602F0DD1207B58B9A06A26
:100E900020F48070A062A06A00F4805018B9A06AA3
:100EA00040F00100A062002061E7000090000020F7
:100EB00024499224922449124992240070B5044690
:100EC000002500BF94F82400012801D1022070BD44
:100ED000012084F8240000BF2046FFF709FC0546E6
:100EE000002D77D1A06A40F20121884340F4807040
:100EF000A0623C492068884208D13B48006800F461
:100F0000702008B9012002E0002000E0012078B143
:100F1000A06A20F48010A0622068406800F480601D
:100F200000B3A06A20F4005040F48050A06219E0A1
:100F3000A06A40F48010A0622B49091F20688842F3
:100F400003D028492068884204D12748006800F46B
:100F5000806000E0002028B1A06A20F4005040F436
:100F60008050A062A06A00F4805020B1E06A20F0B6
:100F70000600E06201E00020E06200BF002084F88B
:100F8000240000BFC01E216808602068806800F44B
:100F90006020B0F5602F16D112492068884208D130
:100FA0001148006800F4702008B9012002E0002018
:100FB00000E0012038B12068806840F4A00021687A
:100FC00088600CE006E02068806840F480102168AA
:100FD000886004E000BF002084F8240000BF284699
:100FE00075E700000028014004240140014600226A
:100FF00091F82100022808D00420886300BF002057
:1010000081F8200000BF012070470868006820F0C8
:101010000E000B6818600868006820F001000B687B
:10102000186091F8403001209840CB6B5860012047
:1010300081F8210000BF002081F8200000BF104689
:10104000E2E7000070B50446002594F8210002286C
:1010500003D00420A063012548E02068006820F048
:101060000E00216808602068006820F001002168F7
:1010700008601F492068884201D1012026E01C49F0
:1010800014312068884201D110201FE0184928310E
:101090002068884201D1801518E015493C3120684C
:1010A000884201D1801411E01149503120688842F2
:1010B00002D14FF4803009E00D4964312068884244
:1010C00002D14FF4801001E04FF0807008490839D8
:1010D0004860012084F8210000BF002084F820002F
:1010E00000BF606B10B12046616B8847284670BD19
:1010F0000800024070B5044600F06CFA064625462A
:10110000681C10B104480078054400BF00F062FA82
:10111000801BA842FAD370BD8C0000207CB5044629
:1011200000F030FB002047490870012C2BD14648C5
:10113000007818B900204449087082E042490878D4
:1011400000EBD0714D102A4640A16846FFF744F8E5
:10115000012040490860831E0D223F493F4801F0AD
:1011600078FD4FF0FF33052269463C4801F071FDE0
:1011700000203B4908703B4801F084F820213A48A0
:1011800000F018FA5DE0102C22D12F4800783C289E
:1011900002D12D49087054E02B4800783C2850D0EB
:1011A0002C48006800284CD127480078401C26496C
:1011B00008700846057805EBD57042102BA12D4824
:1011C000FFF70AF82B4A0121084602F0A5FC38E097
:1011D000022C20D11C48007818B900201A49087048
:1011E0002FE01948007860B31A48006848BB1648D9
:1011F0000078401E144908700846057805EBD57044
:1012000042101AA11B48FEF7E7FF1A4A01210846BF
:1012100002F082FC15E0B4F5006F05D116480068B5
:10122000401C154908600CE0082C0AD10020064932
:1012300008700C4801F075F810A20121084602F070
:101240006BFC7CBD0200002001000020256C640DB9
:101250000A0000008000002015000020540100203A
:1012600000000020C4000020000801402530326446
:10127000000000005D00002004000020526573653E
:101280007420436C69636B656400000010B504460C
:1012900004480068204020B1024804602046FFF75F
:1012A0003DFF10BD140401402DE9F847034600221C
:1012B000944666E14FF0010808FA02F4D1F8008084
:1012C00008EA0400A0427DD1DFF8CCA2D1F8048066
:1012D000A8EB0A09D0453AD014DCB8F1030F50D07E
:1012E00009DCB8F1000F31D0B8F1010F1CD0B8F112
:1012F000020F49D120E0B8F1110F18D0B8F1120F48
:1013000042D11EE0B9F5881F25D006DCB9F5803F33
:1013100020D0B9F5801F37D11AE0B9F5001F18D0D9
:10132000B9F5041F30D117E0D1F80CC02DE0D1F889
:101330000C8008F1040C28E0D1F80C8008F1080CAE
:1013400023E0D1F80C8008F10C0C1EE000BF00BFB8
:1013500000BF00BF00BF00BFD1F80880B8F1000F88
:1013600002D14FF0040C0BE0D1F80880B8F1010F66
:1013700003D14FF0080C1C6102E04FF0080C5C61D7
:1013800003E04FF0000C00E000BF00BFFF2801D8D1
:10139000984601E003F104084646FF2802D84FEAC8
:1013A000820803E0A2F108084FEA88084746D6F809
:1013B00000804FF00F0909FA07F928EA09080CFA2A
:1013C00007F900E085E048EA0908C6F80080D1F88E
:1013D000048008F08058B8F1805F7AD100BFDFF850
:1013E000BC81D8F8188048F00108DFF8B091C9F83E
:1013F0001880C846D8F8188008F00108CDF8008099
:1014000000BF00BF4FEAB9384FEA920958F8295097
:101410004FEA82784FEA18794FF00F0808FA09F876
:1014200025EA0805DFF87881434502D14FF000082E
:101430000FE0DFF87081434502D14FF0010808E06A
:10144000DFF86481434502D14FF0020801E04FF01C
:1014500003084FEA82794FEA197908FA09F848EA4D
:101460000505DFF848814FEA920948F82950D1F87C
:10147000048008F48038B8F5803F0AD1DFF8308165
:10148000D8F8008048EA0008DFF82491C9F8008005
:1014900009E0DFF81C81D8F8008028EA0008DFF8AE
:1014A0001091C9F80080D1F8048008F40038B8F52C
:1014B000003F0FD1DFF8F88008F10408D8F8008069
:1014C00048EA0008DFF8E89009F10409C9F800804B
:1014D0000EE055E0DFF8D88008F10408D8F8008065
:1014E00028EA0008DFF8C89009F10409C9F800806B
:1014F000D1F8048008F48018B8F5801F0ED1DFF809
:10150000B08008F10808D8F8008048EA0008DFF841
:10151000A09009F10809C9F800800DE0DFF890807B
:1015200008F10808D8F8008028EA0008DFF8809061
:1015300009F10809C9F80080D1F8048008F40018FE
:10154000B8F5001F0ED1DFF8688008F10C08D8F854
:10155000008048EA0008DFF8589009F10C09C9F842
:1015600000800DE0DFF8488008F10C08D8F8008012
:1015700028EA0008DFF8389009F10C09C9F8008062
:10158000521CD1F8008028FA02F8B8F1000F7FF45D
:1015900091AEBDE8F8870000000011100010024075
:1015A00000080140000C014000100140080001400B
:1015B0000004014010B5C26821EA020302EA0104F6
:1015C00043EA0443036110BD0AB1016101E00B0469
:1015D00003617047014800687047000084000020E4
:1015E00003480068034909780844014908607047C6
:1015F000840000208C00002010B50848006840F0EE
:10160000100006490860032000F0A8F80F2000F041
:1016100007F800F02BF8002010BD00000020024069
:1016200070B504460E4800784FF47A71B1FBF0F0C3
:101630000C490968B1FBF0F5284600F052FD08B1ED
:10164000012070BD102C07D200222146501E00F050
:1016500047F80548046001E00120F2E70020F0E7C8
:101660008C000020900000208800002008B500BFFA
:101670001148806940F001000F498861084680697F
:1016800000F00100009000BF00BF00BF0846C06925
:1016900040F08050C8610846C06900F0805000905A
:1016A00000BF00BF00BF0549486820F0E06040F07F
:1016B0000070486000BF08BD0010024000000140FB
:1016C00001460846002809DB00F01F0301229A406A
:1016D00043099B0003F1E023C3F8002100BF7047DA
:1016E0002DE9F05F80460D461646002701F0E4FF25
:1016F000074639462A46334601F00700C0F1070A7B
:10170000BAF1040F02D94FF0040A01E0C0F1070A50
:10171000D14600F1040ABAF1070F02D24FF0000AD5
:1017200001E0A0F1030AD4464FF0010A0AFA09FACF
:10173000AAF1010A0AEA020A0AFA0CFA4FF0010BAE
:101740000BFA0CFBABF1010B0BEA030B4AEA0B049F
:101750002146404601F0B8FFBDE8F09F00BF00F011
:101760000702064B19684FF6FF031940044B0B4361
:1017700043EA0221014B196000BF70470CED00E005
:101780000000FA050348006820F0020001490860E3
:101790007047000010ED00E0064A126822F00402D3
:1017A000044B1A60012901D130BF02E040BF20BFC5
:1017B00020BF704710ED00E02DE9F04385B00646EC
:1017C0003BA30FCB01AC0FC43DA0006800904FF0CD
:1017D0000008002500270024A146012E30D0022E4B
:1017E00055D0102E5ED137484468006800F08070F4
:1017F00000B301A8C4F38341475C04F4803070B1A6
:1018000030484068C0F340401DF8008004F4803048
:1018100040B12D48B0FBF8F000FB07F502E02B4883
:1018200007FB00F52748406800F48000B0F5800F02
:1018300001D1A94603E068000321B0FBF1F932E0D1
:101840002048046A04F44070B0F5807F05D104F0AC
:10185000020010B14FF4004918E004F44070B0F5F4
:10186000007F07D11748406A00F0020010B149F626
:1018700040490BE004F44070B0F5407F06D11148B8
:10188000006800F4003008B14FF224490BE000F08A
:1018900093F90C494968C1F38131491C4900B0FBF7
:1018A000F1F900E000BF00BF484605B0BDE8F08395
:1018B00002030405060708090A0B0C0D0E0F101091
:1018C000010200000010024000127A0000093D00F1
:1018D000F8B5044600260025207800F00100002815
:1018E0006BD000274348C06900F0805070B900BF3A
:1018F0004048C06940F080503E49C8610846C06910
:1019000000F08050009000BF00BF01273A480068F7
:1019100000F48070B0B93848006840F480703649EF
:101920000860FFF757FE064606E0FFF753FE801BF0
:10193000642801D90320F8BD2F48006800F48070A6
:101940000028F2D02B48006A00F440752DB3A0881F
:1019500000F44070A84220D02648006A20F4407568
:10196000012026490860002008602248056205F031
:10197000010090B1FFF72EFE064608E0FFF72AFEB1
:10198000801B41F28831884201D90320D3E71948EE
:10199000006A00F002000028F0D01648006A20F427
:1019A00040706168084313490862012F04D108465A
:1019B000C06920F08050C86100BF207800F00200AC
:1019C000022807D10B48406820F44040A168084332
:1019D00008494860207800F01000102807D1054819
:1019E000406820F48000E168084302494860002014
:1019F000A1E7000000100240007000404004424295
:101A000070B504460D460CB9012070BD5A480068F7
:101A100000F00700A8420ED25748006820F00700E7
:101A20002843554908600846006800F00700A842AE
:101A300001D00120E9E7207800F0020002281DD142
:101A4000207800F00400042805D14C48406840F498
:101A5000E0604A494860207800F00800082805D175
:101A60004648406840F460504449486043484068F4
:101A700020F0F000A168084340494860207800F059
:101A8000010078B36068012806D13C48006800F482
:101A9000003090B90120B8E76068022806D13748C5
:101AA000006800F0007040B90120AEE733480068DC
:101AB00000F0020008B90120A7E73048406820F094
:101AC0000300616808432D494860FFF783FD06461F
:101AD00009E0FFF77FFD801B41F28831884202D97F
:101AE000032092E707E02548406800F00C00616899
:101AF000B0EB810FEDD12048006800F00700A8424C
:101B00000ED91D48006820F0070028431A490860D4
:101B10000846006800F00700A84201D0012074E7E1
:101B2000207800F00400042807D11448406820F40D
:101B3000E060E168084311494860207800F008003F
:101B4000082808D10D48406820F46050216940EA17
:101B5000C1000A49486000F03FF808494968C1F3EC
:101B60000311074A515CC8400649086006480068EE
:101B7000FFF756FD002048E7002002400010024019
:101B8000AE42000890000020880000200148006854
:101B9000704700009000002000B5FFF7F7FF0449F0
:101BA0004968C1F30221034A515CC84000BD0000EE
:101BB00000100240BE42000800B5FFF7E7FF0449ED
:101BC0004968C1F3C221034A515CC84000BD00000E
:101BD00000100240BE420008F0B585B00FF26C0C58
:101BE0009CE8E01001A8A0E8E0101CA52D68009575
:101BF00000210022002300240020194D696801F013
:101C00000C05F5B1042D02D0082D19D101E01548BD
:101C100019E001ADC1F38346AC5D01F4803555B1E7
:101C20000F4D6D68C5F340451DF805200D4D65430A
:101C3000B5FBF2F302E00C4D04FB05F3184602E09D
:101C400000BF084800BF00BF05B0F0BD0203040597
:101C5000060708090A0B0C0D0E0F101001020000F8
:101C60000010024000127A0000093D00F8B5044659
:101C70000CB90120F8BD207800F00100002878D0D0
:101C8000F848406800F00C0004280CD0F548406883
:101C900000F00C00082811D1F248406800F48030B0
:101CA000B0F5803F0AD1EF48006800F4003000280A
:101CB0005FD0606800285CD10120DBE700BF60686E
:101CC000B0F5803F06D1E748006840F48030E54930
:101CD000086028E0606858B9E248006820F4803065
:101CE000E04908600846006820F4802008601AE097
:101CF0006068B0F5A02F0BD1DA48006840F480206E
:101D0000D84908600846006840F4803008600AE05E
:101D1000D448006820F48030D24908600846006842
:101D200020F48020086000BF606888B1FFF752FC93
:101D3000054606E0FFF74EFC401B642801D903204E
:101D400098E7C848006800F400300028F2D010E09E
:101D5000FFF740FC054606E0FFF73CFC401B64280B
:101D600001D9032086E7BF48006800F4003000284E
:101D7000F2D1207800F00200022857D1B94840681B
:101D800000F00C0050B1B748406800F00C00082883
:101D900018D1B448406800F4803098B9B148006860
:101DA00000F0020020B12069012801D0012061E784
:101DB000AC48006820F0F800616940EAC100A94918
:101DC000086033E02069E8B10120A7490860FFF707
:101DD00001FC054606E0FFF7FDFB401B022801D988
:101DE000032047E79F48006800F002000028F2D077
:101DF0009C48006820F0F800616940EAC1009949F8
:101E0000086013E0002098490860FFF7E3FB0546EF
:101E100006E0FFF7DFFB401B022801D9032029E77A
:101E20009048006800F002000028F2D1207800F00D
:101E3000080008282DD1A069B8B101208B4908609D
:101E4000FFF7C8FB054606E0FFF7C4FB401B02286E
:101E500001D903200EE78348406A00F00200002801
:101E6000F2D0012001F008F913E000207F4908605A
:101E7000FFF7B0FB054606E0FFF7ACFB401B02286E
:101E800001D90320F6E67748406A00F002000028F6
:101E9000F2D1207800F00400042873D100277148A3
:101EA000C06900F0805070B900BF6E48C06940F052
:101EB00080506C49C8610846C06900F080500090AD
:101EC00000BF00BF01276A48006800F48070B0B905
:101ED0006748006840F4807065490860FFF77AFB46
:101EE000054606E0FFF776FB401B642801D9032076
:101EF000C0E65F48006800F480700028F2D000BFA0
:101F0000E068012806D15748006A40F001005549B1
:101F1000086227E0E06858B95248006A20F00100E2
:101F2000504908620846006A20F00400086219E07F
:101F3000E06805280BD14B48006A40F0040049498D
:101F400008620846006A40F0010008620AE045485D
:101F5000006A20F00100434908620846006A20F048
:101F60000400086200BFE068A0B1FFF733FB05463C
:101F700009E0FFF72FFB401B41F28831884202D96C
:101F8000032077E622E03748006A00F002000028CC
:101F9000EFD012E0FFF71EFB054608E0FFF71AFB43
:101FA000401B41F28831884201D9032062E62D4866
:101FB000006A00F002000028F0D1012F05D1294865
:101FC000C06920F080502749C86100BFE069C8B3EC
:101FD0002448406800F00C00082860D0E06902281E
:101FE00048D1002020490866FFF7F4FA054606E0CC
:101FF000FFF7F0FA401B022801D903203AE61948FE
:10200000006800F000700028F2D1206AB0F5803F2F
:1020100007D11448406820F40030A16808431149F2
:102020004860D4E9080108430E49496821F4741155
:1020300008430C49486001200B490866FFF7CAFABB
:10204000054607E03DE0FFF7C5FA401B022801D92D
:1020500003200FE60348006800F000700028F2D06B
:102060002FE0000000100240000042428004424283
:1020700000700040002014490866FFF7ABFA0546DF
:1020800006E0FFF7A7FA401B022801D90320F1E57B
:102090000E48006800F000700028F2D111E0E069FD
:1020A000012800D1E6E50948466806F48031206A37
:1020B000814204D106F47011606A814201D001208E
:1020C000D8E50020D6E500000000424200100240A2
:1020D0004FF0E020006940F002004FF0E02108617D
:1020E000704770B504462546681EB0F1807F01D365
:1020F00001200FE0681E4FF0E02148610F214FF0F2
:10210000FF3001F0E1FA00204FF0E0218861072064
:102110000861002070BD4FF0E020006920F002004F
:102120004FF0E021086170477047704730B50246B4
:102130000B4600BF92F83C00012801D1022030BDBF
:10214000012082F83C0000BF022082F83D001068A8
:1021500044681068816824F07004186804431068AB
:1021600044600E4D1068A84207D01068B0F1804F4F
:1021700003D00B4D1068A84205D121F080015868AA
:10218000014310688160012082F83D0000BF0020FB
:1021900082F83C0000BF00BFD1E70000002C0140E6
:1021A0000004004010B504460CB9012010BD94F89D
:1021B0003D0028B9002084F83C00204600F026F8B5
:1021C000022084F83D00211D206800F0B7FF0120A7
:1021D00084F8460000BF84F83E0001213F200155ED
:1021E000402001554120015500BF00BF012084F867
:1021F000420043200155442001554520015500BFB0
:10220000012084F83D000020D0E7000038B50446E6
:102210002068B0F1804F16D100BF1848C06940F067
:1022200001001649C8610846C06900F0010000902D
:1022300000BF00BF002211461C20FFF751FA1C20EE
:10224000FFF73EFA19E00E492068884215D100BF19
:102250000A48C06940F002000849C8610846C069E0
:1022600000F00200009000BF00BF002211461D20B8
:10227000FFF736FA1D20FFF723FA38BD00100240A1
:1022800000040040014691F83D00012801D00120E2
:102290007047022081F83D000868C06840F00100E6
:1022A0000B68D860104B0868984207D00868B0F1F6
:1022B000804F03D00D4B086898420CD108688068A5
:1022C00000F00702062A0CD00868006840F0010000
:1022D0000B68186005E00868006840F001000B68B2
:1022E00018600020D4E70000002C014000040040EA
:1022F000014600BF0868006A41F21112104050B94F
:102300000868006A9210104028B90868006820F038
:1023100001000A68106000BF012081F83D00002024
:10232000704701460868C06820F001000A68D06064
:1023300000BF0868006A41F21112104050B90868E5
:10234000006A9210104028B90868006820F0010067
:102350000A68106000BF012081F83D00002070472E
:102360002DE9F04104460D4600BF94F83C000128D9
:1023700002D10220BDE8F081012084F83C0000BFBA
:10238000022084F83D002068866826F0770626F44F
:102390007F46206886602868502833D00CDC2028CF
:1023A00050D004DC00284BD0102851D149E030280F
:1023B00049D040284CD139E060282DD0702807D072
:1023C000B0F5805F03D0B0F5005F41D10DE040E093
:1023D000D5E902136A68206800F0E2FE206886688A
:1023E00046F077062068866033E0D5E902136A6814
:1023F000206800F0D5FE2068806840F480402168A5
:10240000886026E0EA686968206800F099FF50213A
:10241000206800F0D0FE1CE0EA686968206800F0DF
:10242000A2FF6021206800F0C6FE12E0EA68696839
:10243000206800F085FF4021206800F0BCFE08E025
:1024400000BF00BF00BF2968206800F0B4FE00E0B4
:1024500000BF00BF012084F83D0000BF002084F8C9
:102460003C0000BF00BF85E7704710B504462068F8
:102470000069C0F34000D8B12068C068C0F34000D4
:10248000B0B16FF002002168086101202077206858
:10249000806900F0030018B12046FFF7E5FF05E072
:1024A000204600F001F9204600F0B1F90020207725
:1024B00020680069C0F38000D8B12068C068C0F30C
:1024C0008000B0B16FF0040021680861022020771D
:1024D0002068806900F4407018B12046FFF7C4FFFF
:1024E00005E0204600F0E0F8204600F090F90020DA
:1024F000207720680069C0F3C000D8B12068C068A8
:10250000C0F3C000B0B16FF008002168086104207A
:1025100020772068C06900F0030018B12046FFF75B
:10252000A3FF05E0204600F0BFF8204600F06FF959
:102530000020207720680069C0F30010D8B120681F
:10254000C068C0F30010B0B16FF0100021680861DE
:10255000082020772068C06900F4407018B1204638
:10256000FFF782FF05E0204600F09EF8204600F0CD
:102570004EF9002020772068006900F0010058B172
:102580002068C06800F0010030B16FF001002168E0
:102590000861204600F03CF920680069C0F3C010D3
:1025A00058B12068C068C0F3C01030B16FF080002F
:1025B000216808612046FFF7B7FD20680069C0F375
:1025C000801058B12068C068C0F3801030B16FF03F
:1025D000400021680861204600F08AF920680069FF
:1025E000C0F3401058B12068C068C0F3401030B14B
:1025F0006FF02000216808612046FFF796FD10BDAE
:1026000010B586B004460020029003900490059017
:102610002068B0F1804F22D100BF1F48806940F090
:1026200004001D4988610846806900F0040001909B
:1026300000BF00BF4FF400400290022003900590BD
:1026400002A91648FEF730FE00BF1549486820F47D
:10265000407040F0E06040F4807048601AE011493A
:102660002068884216D100BF0B48806940F0040002
:10267000094988610846806900F00400019000BFA4
:1026800000BF4020029002200390059002A9034859
:10269000FEF70AFE06B010BD00100240000801401F
:1026A0000000014000040040704770B504460D462C
:1026B000164600BF94F83C00012801D1022070BDED
:1026C000012084F83C0000BF36B1042E1BD0082E38
:1026D00031D00C2E5ED145E02946206800F074FD13
:1026E0002068806940F0080021688861206880695E
:1026F00020F0040021688861206880692969084306
:102700002168886147E02946206800F08DFD206837
:10271000806940F40060216888612068806920F445
:1027200080602168886120688069296940EA012009
:10273000216888612FE02946206800F0A9FD206803
:10274000C06940F008002168C8612068C06920F0B5
:1027500004002168C8612068C069296908432168AC
:10276000C86118E02946206800F0C6FD2068C069ED
:1027700040F400602168C8612068C06920F480606E
:102780002168C8612068C069296940EA0120216880
:10279000C86100E000BF00BF00BF002084F83C001B
:1027A00000BF00BF8BE710B504460CB9012010BD77
:1027B00094F83D0028B9002084F83C00204600F041
:1027C00025F8022084F83D00211D206800F0B6FCA9
:1027D000012084F8460000BF84F83E0001213F201C
:1027E0000155402001554120015500BF00BF012087
:1027F00084F84200432001554420015545200155ED
:1028000000BF012084F83D000020D0E770477047EA
:1028100070B504462068B0F1804F37D12848007861
:102820002849097888421ADA10212748FEF7C2FEA3
:1028300023480078401C2249087022480078097813
:10284000401A451C05EBD570421020A12148FDF728
:10285000C3FC204A0121084601F05EF916E020463B
:10286000FFF75FFD4FF0FF330D221B491B4800F0BF
:10287000F0F90020124908701949086011490870E0
:1028800020211148FEF796FE01F036FA154920681E
:10289000884213D11248006820B913480078401CC0
:1028A00011490870104800780F2807D10C480068BB
:1028B00020B90E480068401C0C49086070BD00003B
:1028C0000000002001000020000801402530326493
:1028D000000000005D0000202200002054010020C4
:1028E00080000020000400400200002004000020BE
:1028F00070477047704700002DE9F84F0446206884
:1029000005682068C668206847694FF00009CA4614
:1029100005F00F09B9F1000F0AD105F0200038B118
:1029200006F0200020B1204600F066FDBDE8F88FDB
:10293000B9F1000F71D007F0010018B906F49070DA
:1029400000286AD005F0010030B106F4807018B19B
:10295000206C40F00100206405F0040030B107F065
:10296000010018B1206C40F00200206405F0020064
:1029700030B107F0010018B1206C40F00400206471
:1029800005F0080048B106F0200010B907F001007A
:1029900018B1206C40F008002064206C68B305F08A
:1029A000200028B106F0200010B1204600F024FDE0
:1029B00020684069C0F3801A206C00F0080010B94C
:1029C000BAF1000F22D0204600F0EBFC20684069ED
:1029D00000F04000B0B12068406920F0400021685C
:1029E0004861A06B50B15648A16B4863A06BFEF7DD
:1029F00029FB10B1A06B416B88470CE02046FFF724
:102A000079FF08E02046FFF775FF04E02046FFF756
:102A100071FF0020206489E7FFE7206B012878D14F
:102A200005F01000002874D006F01000002870D0C7
:102A300000BF002000902068006800902068406877
:102A4000009000BF00BF2068406900F04000C0B3A4
:102A5000A06B006840681FFA80F8B8F1000F2FD013
:102A6000A08D40452CDDA4F82E80A06B8069202825
:102A70001FD02068C06820F480702168C86020687A
:102A8000406920F00100216848612068406920F019
:102A9000400021684861202084F83E000020206327
:102AA0002068C06820F010002168C860A06BFEF7A5
:102AB0009DFAA08DE28D801A81B22046FFF719FFA2
:102AC00034E7FFE7A08DE18D401A1FFA80F8E08D12
:102AD000E8B1B8F1000F1AD02068C06820F49070F7
:102AE0002168C8602068406920F0010021684861C1
:102AF000202084F83E00002020632068C06820F079
:102B000010002168C86041462046FFF7F2FE0DE73D
:102B1000FFE705F0800030B106F0800018B12046D4
:102B200000F05AFD02E705F0400030B106F0400029
:102B300018B1204600F050FCF8E600BFF6E60000B1
:102B40008F33000810B504460CB9012010BDA069F0
:102B500000B100E000BF94F83D0028B9002084F8DF
:102B60003C00204600F028F8242084F83D0020682E
:102B7000C06820F400502168C860204600F0AEFC18
:102B80002068006920F4904021680861206840694D
:102B900020F02A00216848612068C06840F4005095
:102BA0002168C86000202064202084F83D0084F85B
:102BB0003E000020CAE7000010B586B004460020A1
:102BC00002900390049005901E492068884236D1F7
:102BD00000BF1D48806940F480401B498861084659
:102BE000806900F48040019000BF00BF00BF08462C
:102BF000806940F0040088610846806900F00400A4
:102C0000019000BF00BF48150290022003900320EE
:102C1000059002A90D48FEF747FB4FF48060029033
:102C200000200390049002A90848FEF73DFB002213
:102C300011462520FEF754FD2520FEF741FD06B084
:102C400010BD0000003801400010024000080140A3
:102C500070472DE9F84F04460E46174699464FF047
:102C6000000A94F83D0020285AD106B117B9012076
:102C7000BDE8F88F00BF94F83C00012801D1022084
:102C8000F6E7012084F83C0000BF002020642120EA
:102C900084F83D00FEF79EFC8246A784E784A06886
:102CA000B0F5805F04D1206910B90025B04602E07C
:102CB00035464FF0000800BF002084F83C0000BFFC
:102CC0001BE05346002280212046CDF8009000F002
:102CD000B3FC08B10320CBE745B9B8F80000C0F356
:102CE00008002168486008F1020803E0287821689C
:102CF00048606D1CE08C401EE084E08C0028E0D130
:102D00005346002240212046CDF8009000F094FC6C
:102D100008B10320ACE7202084F83D000020A7E79D
:102D20000220A5E7704700BFFEE700000EB50020B7
:102D30000090019002901248124908600021114849
:102D40008160017301754FF46021C16100200D495C
:102D5000486001210B480161FDF70CFF08B1FDF748
:102D600031FD002000900120019000200290694672
:102D70000448FDF7B9FD08B1FDF724FD0EBD0000C4
:102D8000002401409400002000B585B0002001908F
:102D900002900390049000BF5048806940F01000FA
:102DA0004E4988610846806900F01000009000BF1D
:102DB00000BF00BF0846806940F0200088610846D7
:102DC000806900F02000009000BF00BF00BF0846EF
:102DD000806940F0040088610846806900F00400C2
:102DE000009000BF00BF00BF0846806940F00800A7
:102DF00088610846806900F00800009000BF00BFAD
:102E000000224FF400513648FEF7DEFB002241F667
:102E100030013448FEF7D8FB00224FF471413248AC
:102E2000FEF7D2FB4FF400500190012002900020E9
:102E300003900220049001A92948FEF735FA41F6D3
:102E400030000190012002900020039002200490A5
:102E500001A92448FEF728FA40F61B0001902348F8
:102E600002900020039001A91F48FEF71DFA4FF4BD
:102E700071400190012002900020039002200490F4
:102E800001A91948FEF710FA002201210620FEF7D9
:102E900027FC0620FEF714FC002201210720FEF784
:102EA0001FFC0720FEF70CFC002201210920FEF781
:102EB00017FC0920FEF704FC002201210A20FEF77E
:102EC0000FFC0A20FEF7FCFB002201212820FEF760
:102ED00007FC2820FEF7F4FB05B000BD00100240FF
:102EE0000010014000080140000C014000001110DA
:102EF00000B58DB0002009900A900B900C900790BF
:102F000008901C216846FDF7CBFA4FF080401F491E
:102F100008607C20486000211C4881604FF6FF114A
:102F2000C160002101618161FFF73CF908B1FDF743
:102F300049FC4FF48050099009A91448FFF710FA92
:102F400008B1FDF73FFC1148FFF72DFC08B1FDF774
:102F500039FC00200790089007A90C48FFF7E6F815
:102F600008B1FDF72FFC6020009000200190029036
:102F70000490002269460548FFF797FB08B1FDF76A
:102F800021FC0248FFF73CFB0DB000BDC40000204F
:102F900000B58DB0002009900A900B900C9007901E
:102FA00008901C216846FDF77BFA204820490860FC
:102FB0007C20486000211E4881604FF6FF11C160EF
:102FC000002101618161FFF7EDF808B1FDF7FAFB1F
:102FD0004FF48050099009A91548FFF7C1F908B1CD
:102FE000FDF7F0FB1248FFF7DEFB08B1FDF7EAFB47
:102FF00000200790089007A90D48FFF797F808B13F
:10300000FDF7E0FB6020009000200190029004900A
:10301000002269460648FFF748FB08B1FDF7D2FBDE
:103020000348FFF7EDFA0DB000BD000000040040BA
:103030000C01002010B50B480B4908604FF41650E6
:103040004860002108488160C16001610C21416134
:1030500000218161C161FFF775FD08B1FDF7B2FB89
:1030600010BD0000003801405401002000BFFEE701
:1030700000BFFEE77047000008B508490968C908A5
:103080004FF47A72B1FBF2F14143009100BF00BFEF
:1030900000994A1E00920029F9D108BD9000002035
:1030A000704710B5FEF79CFA10BD00B593B028210B
:1030B00009A8FDF7F5F9142104A8FDF7F1F900209E
:1030C00000900190029003900220099001200D9041
:1030D00010200E900020109009A8FEF7C7FD08B13F
:1030E000FDF770FB0F2004900020059006900790DC
:1030F0000890002104A8FEF783FC08B1FDF762FBED
:1031000002200090002002906846FEF7E1FB08B123
:10311000FDF758FB13B000BD7047000010B5024822
:10312000FFF7A3F910BD0000C400002010B502484D
:10313000FFF79BF910BD00000C01002010B50268DC
:10314000154B984205D0B0F1804F02D0134B9842F6
:1031500003D122F070024B681A430F4B984205D0FE
:10316000B0F1804F02D00D4B984203D122F440724F
:10317000CB681A4322F080034C6943EA04020260E0
:103180008B68C3620B688362034B984201D10B6961
:1031900003630123436110BD002C01400004004083
:1031A00030B50C46816821F47F4142EA032525436E
:1031B0002943816030BD0A46816821F0700142F0E8
:1031C000070319438160704730B5056A25F0010592
:1031D0000562026A4368846924F0700424F00304E1
:1031E0000D682C4322F002028D682A430D4DA8423F
:1031F00006D100BF22F00802CD682A4322F0040263
:10320000084DA84207D123F4807323F400734D695D
:103210002B438D692B43436084614D684563026293
:1032200030BD0000002C014030B5056A25F01005C6
:103230000562026A4368846924F4E04424F440741B
:103240000D6844EA052422F020028D6842EA051246
:103250000E4DA84207D100BF22F08002CD6842EA9D
:10326000051222F04002094DA84209D123F48063DF
:1032700023F400634D6943EA85038D6943EA8503BE
:10328000436084614D688563026230BD002C01405B
:1032900030B5056A25F480750562026A4368C46921
:1032A00024F0700424F003040D682C4322F400720F
:1032B0008D6842EA05220F4DA84207D100BF22F4D3
:1032C0000062CD6842EA052222F48062094DA842DC
:1032D00009D123F4805323F400534D6943EA0513C5
:1032E0008D6943EA05134360C4614D68C56302629A
:1032F00030BD0000002C014030B5056A25F4805532
:103300000562036A4468C26922F4E04222F4407212
:103310000D6842EA052223F400538D6843EA053321
:10332000064DA84204D124F480444D6944EA851432
:103330004460C2614D680564036230BD002C0140E9
:1033400030B50B461446026A056A25F00105056290
:10335000816921F0F00141EA041122F00A021A43C6
:103360008161026230BD30B50B461446056A25F016
:10337000100505628169026A21F4704141EA043155
:1033800022F0A00242EA03128161026230BD70B5F0
:1033900005466C6A0020E085E0842046FFF7AAFA23
:1033A00070BD0168C96821F490710268D16001683C
:1033B000496921F0010102685161016B012905D1C0
:1033C0000168C96821F010010268D160202180F8ED
:1033D0003E1000210163704710B504462068C068A4
:1033E00020F040002168C860202084F83D0020467D
:1033F000FFF798FC002010BDF8B5044694F83E0095
:10340000222869D1A068B0F5805F0CD1206950B93D
:103410000025A66A20684068C0F308003080A06AD2
:10342000801CA06215E0A56A0026A068B0F5805F48
:1034300003D0A06828B9206918B9206840682870AE
:1034400004E02068406800F07F002870A06A401CFB
:10345000A062E08D401E80B2E085A8BB2068C068F5
:1034600020F020002168C8602068C06820F48070C7
:103470002168C8602068406920F001002168486127
:10348000202084F83E00206B01281ED100202063FC
:103490002068C06820F010002168C86020680068BB
:1034A00000F0100010280AD100BF00200090206812
:1034B0000068009020684068009000BF00BFA18DA8
:1034C0002046FFF716FA03E004E02046FFF7C0FBB2
:1034D0000020F8BD0020FCE70220FAE770B50446A2
:1034E0002168096921F44051E268114322681161A1
:1034F0002269A1681143626941EA02052168C9682D
:1035000041F20C62914329432268D16021684969E4
:1035100021F44071A2691143226851612D4A21684A
:10352000914202D1FEF748FB01E0FEF735FB00EBCC
:10353000C00101EB001162689200B1FBF2F100EBF7
:10354000C00202EB001263689B00B2FBF3F264233B
:10355000B2FBF3F202EBC20303EB0212A1EB820116
:10356000322202EB01116422B1FBF2F101F0F00111
:1035700000EBC00202EB001263689B00B2FBF3F2A7
:103580006423B2FBF3F201EB021200EBC00101EB8A
:10359000001163689B00B1FBF3F100EBC00303EB88
:1035A00000136668B600B3FBF6F36426B3FBF6F3CC
:1035B00003EBC30606EB0313A1EB8301322303EBFA
:1035C00001116423B1FBF3F101F00F0111442268F2
:1035D000916070BD00380140014691F83D002128FE
:1035E00028D18868B0F5805F0BD1086948B90A6AAC
:1035F0001088C0F308000B685860086A801C0862D5
:1036000005E00B6A581C086218780B685860C88C73
:10361000401E80B2C88458B90868C06820F0800095
:103620000B68D8600868C06840F040000B68D8603C
:10363000002070470220FCE72DE9F04104460D46CA
:1036400017469846069E21E0701CF8B12EB1FDF792
:10365000C1FFA0EB0800B04218D92068C06820F470
:10366000D0702168C8602068406920F0010021689E
:103670004861202084F83D0084F83E0000BF00200F
:1036800084F83C0000BF0320BDE8F081206800689A
:103690002840A84201D1012000E00020B842D3D048
:1036A0000020F1E710B50248FFF726F910BD000031
:1036B0005401002000BFFEE702480068C0F302206A
:1036C000704700000CED00E010B5002804DB0A078D
:1036D000130E054A135406E00A07140E034A00F0BD
:1036E0000F031B1FD45410BD00E400E018ED00E0F0
:1036F00030380A2801D201207047002070470000AE
:1037000010B51A48FEF70DFE20211948FDF752FFAB
:103710001848FEF7EDFD4FF0FF3313221649174806
:10372000FFF797FA0020164908604FF4005115483A
:10373000FDF740FF40F6B830FDF7DCFCFEF7EBFC90
:1037400001210020FEF728F8FEF7C2FC4FF0FF33FE
:1037500013220D490948FFF77CFA4FF4005109483C
:10376000FDF728FF0148FEF78DFD10BD0C0100207C
:1037700000080140C4000020370000205401002050
:1037800004000020001001404A00002000B502465D
:103790005648006840F40060544908608814534952
:1037A0000831086052490860400008604000086025
:1037B0004000086000F058F94C48006840F4805020
:1037C0004A490860C2F3001020B188144849091F13
:1037D000086004E04FF080504549091F0860C2F3BB
:1037E000401028B14FF400504149091F086004E01F
:1037F0004FF000503E49091F0860C2F3801028B105
:103800004FF480403A49091F086004E04FF08040BF
:103810003749091F0860D00928B14FF400403449E6
:10382000091F086004E04FF000403149091F08609B
:1038300000F01AF94FF480502C49083108602C49E7
:10384000086040000860400008604000086000F028
:103850000BF92648006840F480502449086002F0C3
:10386000010020B188142249091F086004E04FF0CC
:1038700080501F49091F0860C2F3400028B14FF46F
:1038800000501B49091F086004E04FF00050184920
:10389000091F0860C2F3800028B14FF4804014492A
:1038A000091F086004E04FF080401149091F0860BB
:1038B000C2F3C00028B14FF400400D49091F086051
:1038C00004E04FF000400A49091F086000F0CCF8FE
:1038D0004FF48050054908310860054908604000F0
:1038E0000860400008604000086000BD0C0801400E
:1038F000140C014010B5012000F004F80220FDF77F
:10390000F9FB10BD00B502464FF400605449086051
:1039100040000860534908604000086040000860AB
:103920004000086000F0A0F84D480838006840F4F6
:1039300080504B4908390860C2F3001020B1881448
:103940004849091F086004E04FF080504549091FAD
:103950000860C2F3401028B14FF400504149091FDC
:10396000086004E04FF000503E49091F0860C2F3B0
:10397000801028B14FF480403A49091F086004E0E4
:103980004FF080403749091F0860D00928B14FF433
:1039900000403449091F086004E04FF000403149FD
:1039A000091F086000F060F84FF480502C4908604F
:1039B0002C49086040000860400008604000086032
:1039C00000F052F826480838006840F48050244936
:1039D0000839086002F0010020B188142149091F4C
:1039E000086004E04FF080501E49091F0860C2F3D0
:1039F000400028B14FF400501A49091F086004E044
:103A00004FF000501749091F0860C2F3800028B129
:103A10004FF480401349091F086004E04FF08040D4
:103A20001049091F0860C2F3C00028B14FF40040DC
:103A30000C49091F086004E04FF000400949091FC4
:103A4000086000F011F84FF48050054908600549FE
:103A5000086040000860400008604000086000BD49
:103A600014080140140C014000B54FF47A70FCF7C3
:103A70008AFE00BD10B503460C46012B05D104F1AA
:103A80007F01C8B2FFF73EFF06E0022B04D104F12C
:103A9000BF01C8B2FFF736FF10BD70B504460D4632
:103AA0001646FA20FDF726FB0220FFF72BFF3220F7
:103AB000FDF720FB44F02001294341EA0600FFF70F
:103AC00021FF3220FDF716FB0620FFF71BFF3220F7
:103AD000FDF710FB0E20FFF715FF3220FDF70AFB64
:103AE0000C20FFF70FFF3220FDF704FB0120FFF74A
:103AF00009FF6420FDF7FEFA70BD00B5034605E03E
:103B0000FFF7B2FF13F8010BFFF740FE187800280B
:103B1000F6D1FFF7A9FF00BD70B505460E46144665
:103B200031462846FFF7A6FF2046FFF7E6FF70BDA7
:103B30000EB5FDF761FDFFF7B8FAFFF725F9FFF7BE
:103B4000D7F9FFF777FAFFF7F1F8FFF721FA00202E
:103B50004E4908704E490870082200210846FFF7B8
:103B60009CFF4CA201210846FFF7D6FF4CA2012181
:103B70000846FFF7D1FF40F2DC50FDF7BBFAFFF734
:103B8000B9FE4B48FCF722FE4FF0000A00BF0020B0
:103B9000029000BF0024474908603D49087008466C
:103BA000027845A14648FCF717FB454A0121084623
:103BB000FFF7B2FF002043490860434908704348BB
:103BC000FEF760FB4FF400514148FDF7F3FC5CE069
:103BD0003748FDF773F94FF47A713548FDF7AEF8C1
:103BE000002838D13248FCF730FF8246504600F0BA
:103BF00010F90746374A384B00F01EF9054600F029
:103C0000A7F80290504600F004F90746314A324BBB
:103C100000F012F9054600F0CDF804462F4902984D
:103C200000F048FA05463220FDF764FA03E02C481C
:103C3000006844631434FF2CF9DB002429490298FE
:103C400000F004FB04D24FF400712748FDF7B2FCEA
:103C50000120FDF74FFA41F28830FDF74BFA02A838
:103C600000F0FF094A4621A16846FCF7B5FA4FF07B
:103C7000FF33052269461F48FEF7EBFF1148006835
:103C8000002801DDFFF73CFD00BFA1E70000002098
:103C90000100002057656C636F6D652E2E2E0000AD
:103CA00053797374656D73204F4E2E2E2E000000D5
:103CB00094000020800000202530326400000000C5
:103CC0005D00002004000020020000200C01002004
:103CD00000100140650D28E5FF9FB43F0000204122
:103CE000C400002000004842000C0140256C640D17
:103CF0000A0000005401002010B50DA20FA11048C9
:103D0000FCF76AFA0E4A01210846FFF705FF0DA2EB
:103D10000AA10B48FCF760FA094A01210846FFF79F
:103D2000FBFE074A01210846FFF7F6FE10BD000022
:103D300054696D657220446F6E6500002573000044
:103D40005D000020202020202020202020200000B6
:103D500021F00042A2F16052B2F5801F01F0004351
:103D600028BFD2F17F6C0BD95FEA001C43EAC20284
:103D700042EB507018BF704728BF20F00100704719
:103D8000B2F5801FBCBF184670474FEA410C1CF5C6
:103D9000001F02D2084600F054BA70B500F0F6F8E1
:103DA00000000089FFF7F6BF4FF00040A0F580004B
:103DB000704700004FEA41034FEA5353A3F5806375
:103DC000D3F11E03C8BFD3F1210C0CDD4FF000422C
:103DD00042EAC12242EA505232FA03FC8CEAE17C08
:103DE000ACEBE1707047102BC4BF0020704703F5A7
:103DF000787CBCF1FF3F04D06FF0004282EA2100E2
:103E0000704770B500F0C2F84992248000207047D6
:103E1000F2E7B0FA80F310FA03F10AD0C3F11D0300
:103E200003F580634FEA41504FEA035202EBD12180
:103E300070474FF000007047DFF848C170B51CEACA
:103E4000111E1EBF1CEA13159EEA0C0F95EA0C0FFB
:103E500000F06F8081EA030423EA4C134EEAD47E1B
:103E600021EA4C1141F4801143F48013AE44A1FBCC
:103E7000024CA0FB0365AEF17F7E361955EB0C05B5
:103E8000A1FB034C4CF10003A0FB021C16EB0C063B
:103E9000654153F10003094218BF46F0010613F4CF
:103EA000007F0BD14FEA03314FEA0530340341EA7A
:103EB000155140EA16506FF003020AE04FEAC321A1
:103EC0004FEAC520F40241EA555140EA56506FF0DE
:103ED000020202EB2E4201EB025585EACE710AD0B6
:103EE0005FEA440C18BF24F0004450F1000041F197
:103EF000000120EAD47040F2FE7C624500D270BD21
:103F0000A84214BF4FF080444FF04044002E08BF39
:103F10000024BEF1806FA8BFA1F1C041BDE8704090
:103F200080F282804FF0000001F1C04101F00041B9
:103F300070479EEA0C0F0CEA131518BF95EA0C0F98
:103F400006D04FF0000081EA030E0EF0004170BD74
:103F500000F01CF88900013E00F007B800F009B835
:103F60004FEA430C5FEA5C5C08D081EA030100F091
:103F70005BB84FEA410C5FEA5C5CF6D14FF00000A1
:103F8000014970470000FF070000F87F0EF1020EA4
:103F90002EF0030E5EF8046B364205D4012A43EB83
:103FA000030515F5001F12D8012841EB010C1CF583
:103FB000001F0CD80ED14FEAD17C15F5001F0CEB79
:103FC0004C0C0CF1020C08BF4CEBD37C04E04FF01E
:103FD000080C01E04FEAD37C0CEB4C0526FA05F601
:103FE00006F00706B6F1040C06D20EEB860CBDE80F
:103FF00070404CF0010C6047DFE80CF0090B020246
:104000004FF000414FF00000A1F5002170BD1946AE
:104010001046012851EB010418BFD4F5001484BFE9
:10402000002001F0004170BD0808A0F500114FEA22
:1040300031017047401058BFC0F14040491058BF8F
:10404000C1F140418142EFF30080704750EA010C1A
:1040500000F113801CF5000F58BFBCF5000F01D410
:104060008842704707D710F5000F58BF11F5000FB1
:1040700015D488427047894270471CF5000F04D55B
:10408000BCF5000FF7D5814270474FF0807C1CEBE8
:10409000400F38BF1CEB410F01D28142704710B571
:1040A00000F089F8922449004FF000504FF0805101
:1040B000FFF7C0BF4FF47F0C1CEAD0121EBF1CEAF2
:1040C000D11392EA0C0F93EA0C0F00F0478090EAAC
:1040D000010F48BF42F480724FF0004C4CEA0020C0
:1040E0004CEA012102EB0302A0FB0113A2F500023E
:1040F000002918BF43F001035B0028BF4FEA3303D8
:1041000042EB22425FEA132C4CEBC2502EBFBCEBB9
:10411000436FB2F57C0F70474FEA036CBCF1004F60
:1041200008BF20F00100B2F57C0F38BF70470BD5F7
:1041300082F0FF0212F5803FC8BF704700F1C04017
:10414000D8BF00F00040704700F5000C5FEA4C0C4F
:1041500048BF7047B0F1C04000F073B890EA010F5B
:104160000CEAD11348BF42F48072624538BF634500
:1041700004D280EA010000F00040704710B500F062
:104180001AF800BF8900013E00F007B800F009B836
:104190005FEA410C5FEA1C6C08D080EA010000F085
:1041A00050B85FEA400C5FEA1C6CF6D14FF000405B
:1041B000A0F5800070470EF1020E2EF0030E5EF89F
:1041C000044B244204D44FEA4102B2F17F4F11D88C
:1041D0004FEA4003B3F17F4F0CD80ED14FEAD07CA9
:1041E000B2F17F4F0CEB4C0C0CF1020C08BF4CEB06
:1041F000D17C04E04FF0080C01E04FEAD17C0CEBDD
:104200004C0324FA03F404F00704B4F1040C06D2BE
:104210000EEB840CBDE810404CF0010C6047DFE869
:104220000CF0070802024FF00040A0F5800010BD1E
:104230000846420018BFD2F1807288BF00F00040EB
:1042400010BDFF2141EAD050C005704751EA000C73
:1042500000F113801CF5000F58BFBCF5000F01D40E
:104260008142704707D711F5000F58BF10F5000FB6
:1042700015D481427047894270471CF5000F04D560
:10428000BCF5000FF7D5884270474FF0807C1CEBDF
:10429000410F38BF1CEB400F01D28842704780EAC3
:1042A000010081EA000180EA0100FFF7F8BE00008A
:1042B00000000000000001020304060708090000D6
:1042C00000000102030404000008000000000000D8
:1042D0000002000100001000F84200080000002069
:1042E00094000000280100088C430008940000207E
:1042F0006407000044010008000000000000000006
:1043000048656C6C6F20576F726C640D0A54696D50
:104310006572205374617274200054696D65722057
:10432000446F6E650D0A000D0A0000000000005386
:104330006C656570696E67206D6F64652E2E2E0D3D
:104340000A0077616B696E67207570206D6F646518
:104350002E2E2E0D0A20000000000000000000009C
:10436000000000000000000000000000000000004D
:10437000000000000000000000000000000000003D
:0C43800010000000010000000024F40008
:04000005080000ED02
:00000001FF
